S0150000436172436F6E74726F6C6C65722E73726563D5
S113000014C038C037C041C318C334C033C032C071
S113001031C0D4C22FC02EC02DC02CC0A5C22AC04E
S113002029C028C027C0CD06D30611241FBECFE5A2
S1130030D4E0DEBFCDBF10E0A0E6B0E0E4E0F3E141
S113004002C005900D92A838B107D9F721E0A8E8BD
S1130050B0E001C01D92A732B207E1F710E0C8E298
S1130060D0E003C02297FE013DD9C632D107D1F7B3
S1130070FCD33CC9C5CFFC017183608314828FEF2C
S1130080838308950895DC01ED91FC9180810895A6
S1130090FC01A081B1812C914481421720F430E00D
S11300A0241B310902C020E030E05FEF529FC00101
S11300B0539F900D1124638170E0641B710990D8E3
S11300C0262F372F2F3F310519F010F02FEF30E096
S11300D022830895FC01828108951F93CF93DF93B7
S11300E0EC01162FD0DF8E5F8C8390E0810F911D81
S11300F08F3F910521F01CF08FEF8B8301C08B8320
S1130100DF91CF911F910895FC0184810895FC0132
S1130110838108950F931F93CF93DF93EC01042FF2
S1130120122FA9DF0D831E83DF91CF911F910F91B1
S113013008958F929F92AF92BF92DF92EF92FF92B7
S11301400F931F93CF93DF93162F6B35E0F4FC01CD
S1130150C5812C2F30E0A4E6B0E0A6D82AE530E033
S113016040E050E086D8D22EE32EF42E052FD0E0C6
S1130170AAE5B0E0ABD824E630E040E050E079D81E
S1130180C21BD30B49C06B3A20F5FC018680A82D15
S1130190B0E08581A81BB10924E630E091D820E5C0
S11301A030E040E050E065D8D22EE32EF42E052F47
S11301B0912CA12CB12CAAEAB0E088D824E630E036
S11301C040E050E056D8821A930AA40AB50AE40122
S11301D023C0FC018681AFEFB0E0A81BB10924E67F
S11301E030E06ED825E530E040E050E042D8D22E31
S11301F0E32EF42E052FAFEFB0E068D824E630E00C
S113020040E050E036D88FEF90E0A0E0B0E0821BF1
S1130210930BA40BB50BEC01A12FB0E02D2D3E2DBB
S11302204F2D502F53D824E630E040E050E021D841
S11302308C2F820FDF91CF911F910F91FF90EF9040
S1130240DF90BF90AF909F908F9008950F931F936E
S1130250CF93DF93EC01082F1D2F9D2F14DF9B817B
S1130260981720F48C2F9D2F0EDF8B83802F912FD6
S11302700FDF6A81CE015DDF8A83DF91CF911F9109
S11302800F91089508958091BF008230C0F18F3F8F
S113029019F081508093BF008091940080FF07C0C3
S11302A08FE091E0C5D587E191E0D6D537C081FFD5
S11302B007C08FE091E0D0D587E191E0B9D52EC099
S11302C082FF0BC08FE091E0C7D58FE091E017D695
S11302D0682F87E191E0EAD521C084FF1FC08FE039
S11302E091E0BAD58FE091E00AD6882321F087E126
S11302F091E09ED513C087E191E087D50FC081308E
S113030069F41092BF008FE091E092D587E191E00B
S11303108FD580919400887F80939400809195007C
S113032090919600009739F481E090E090939600C4
S11303308093950008950197A1F480919C008823EF
S113034019F088E78093B80080919B00882319F006
S11303508FEF8093B80082E090E0909396008093B2
S1130360950008958130910509F07AC06F3F7F4F61
S113037009F0AEC021E046E068E370E08FE191E06F
S113038018D521E047E068E370E087E191E011D5FA
S113039021E045E062E370E08FE091E00AD521E0DE
S11303A046E068E370E087E091E003D521E042E0B5
S11303B062E370E08FEF90E0FCD421E043E062E37D
S11303C070E087EF90E0F5D424E648E26FEE70E049
S11303D088EE90E09FDE60EF70E083EE90E04BDE0D
S11303E061EF70E08EED90E046DE62EF70E089ED43
S11303F090E041DE66EF70E084ED90E03CDE65EF76
S113040070E08FEC90E037DE42E063E471E08AEC68
S113041090E078D642E065E274E085EC90E072D634
S113042062E471E080EC90E072D623E430E047EFC0
S113043050E06FEF70E082EB90E06FD56FE171E018
S11304408EEA90E018D68AEA90E0F3D586EA90E046
S1130450F0D582EA90E0EDD58EE990E0EAD50895F2
S1130460892BB1F56F3F7F4F99F58EEA90E007D65F
S113047082EB90E05FD580EC90E04DD685EC90E087
S11304804AD68AEC90E047D68FEC90E0FBDD84ED11
S113049090E0F8DD89ED90E0F5DD8EED90E0F2DDA1
S11304A083EE90E0EFDD88EE90E0ECDD87EF90E006
S11304B033D58FEF90E030D587E091E02DD58FE0F4
S11304C091E02AD587E191E027D58FE191E024D509
S11304D008951F93CF93DF939C01815F984D8F31D3
S11304E09E4450F0C90160E177E28ED6605D60936E
S11304F08900E1E0F0E002C0E0E0F0E0C90160E181
S113050077E282D6182F492F9C0129513C4F2F3C6A
S1130510374050F0EF01C757DF4F812F68EE73E08B
S113052073D6605D68833196812F942F68EE73E0F3
S11305306BD6E757FF4F64E670E066D6605D608374
S11305406AE070E061D6605D6183805D82831382BE
S113055089E890E0DF91CF911F91089580E687B9F3
S11305608EE886B9369A08951F920F920FB60F92AD
S113057011248F93EF93FF93E7B185B1EF70F0E00F
S1130580E151FF4F8083FF91EF918F910F900FBE48
S11305900F901F90189536990AC087B1873619F4C1
S11305A080E687B903C087B18F5F87B9369A08950B
S11305B085E083BF89B7816089BF08951F920F9238
S11305C00FB60F9211242F933F934F935F936F9322
S11305D07F938F939F93AF93BF93EF93FF938091F8
S11305E08800813029F4809160008093880005C0E0
S11305F0823018F08150809388008AEC90E08FD587
S113060085EC90E08CD5FF91EF91BF91AF919F91D4
S11306108F917F916F915F914F913F912F910F90A7
S11306200FBE0F901F90189584E085BD89B7806434
S113063089BF89B7806889BF08951F920F920FB64A
S11306400F9211242F933F934F935F936F937F9354
S11306508F939F93AF93BF93EF93FF9382EB90E0BD
S11306606AD48EEA90E021D5FF91EF91BF91AF91CA
S11306709F918F917F916F915F914F913F912F91B6
S11306800F900FBE0F901F9018951F920F920FB6E8
S11306900F9211242F933F934F935F936F937F9304
S11306A08F939F93AF93BF93EF93FF9382EB90E06D
S11306B08AD4FF91EF91BF91AF919F918F917F91D8
S11306C06F915F914F913F912F910F900FBE0F90BB
S11306D01F9018958091EF0090E0FBDE68D581E6CD
S11306E090E065D583EE90E0F5DC90E0F2DE5FD536
S11306F081E690E05CD58091F10090E0EADE57D588
S113070081E690E054D58091F50090E0E2DE4FD58B
S113071081E690E04CD58091F60090E0DADE47D592
S113072081E690E044D58DE790E041D5089560E5F9
S113073088EE90E0D2DC83E08093B70060E18AEC3D
S113074090E0EAD48AEC90E00BD56CE385EC90E081
S1130750E3D485EC90E004D562E08EEA90E0BED468
S113076010929600109295000895823169F130F448
S1130770803171F0813109F067C018C0803209F40A
S113078045C0813209F44EC0833109F05DC030C0E8
S11307908091940080FD58C082FD56C08D7F816099
S11307A0809394008EE08093BF000895809194001C
S11307B081FD4AC082FD48C08E7F82608093940090
S11307C08EE08093BF0008958091940082FD0AC05A
S11307D084FD3AC08C7F8460809394008FEF809373
S11307E0BF00089584FD30C081E08093BF00089568
S11307F08EEA90E052D4882329F065E08EEA90E0F6
S11308006DD408958EEA90E042D4089580919400C6
S113081084FD1AC0887F8061809394008FEF809359
S1130820BF0008958091940084FF0EC081E08093FE
S1130830BF008FE091E0FCD287E191E0F9D2809192
S113084094008C7E8093940008958091930081118C
S113085041DF8091970090919800883E934021F465
S11308601092B90080E281DF089560E472E48FE0C1
S113087090E080D4F89472DE9BDED6DE789483E632
S113088090E095D42FEF86E791E02150804090408E
S1130890E1F700C000004BDF992493940CEA10E0C8
S11308A00F2EF8EAEF2EF0E0FF2EF02D0F2EF9EBCD
S11308B0CF2EF0E0DF2EF02DC4EFD0E00F2EFFE0BE
S11308C08F2EF02D0F2EFFEE2F2EF0E03F2EF02D69
S11308D00F2EF5EF4F2EF0E05F2EF02D0F2EF6EFDA
S11308E06F2EF0E07F2EF02D8AEC90E027D485EC7B
S11308F090E024D450DE88EE90E0A8DC88EE90E00E
S1130900E9DB682F82EB90E088D383EE90E0BBDBD9
S1130910893C20F08AEA90E09AD303C08AEA90E006
S113092089D38EED90E0AFDB893C20F086EA90E03D
S11309308ED303C086EA90E07DD389ED90E0A3DBFB
S1130940893C20F082EA90E082D303C082EA90E0FE
S113095071D384ED90E097DB8B34A1F084ED90E0CB
S113096092DB883279F084ED90E08DDB893251F0AE
S113097084ED90E088DB8C3229F084ED90E083DB19
S1130980893121F48EE990E062D303C08EE990E0CE
S113099051D384ED90E077DB8735A1F084ED90E0CE
S11309A072DB883279F084ED90E06DDB823351F0B4
S11309B084ED90E068DB893129F084ED90E063DB1D
S11309C0843319F490929D0002C010929D0084ED2E
S11309D090E059DB883651F084ED90E054DB8932A5
S11309E029F084ED90E04FDB823319F490929C005F
S11309F002C010929C0084ED90E045DB803851F0F9
S1130A0084ED90E040DB8C3229F084ED90E03BDB18
S1130A10843319F490929B0002C010929B00809141
S1130A20AA00811104C08091A600882391F0F801E6
S1130A3080819181895E93408739984050F4F70111
S1130A4080819181895E93408739984010F482E1D6
S1130A508CDE8091940082FD1EC084FD1CC08091B8
S1130A60AA00882351F0F801808191818D5B924026
S1130A708B36974010F480E178DE8091A6008823BD
S1130A8051F0F701808191818D5B92408B369740C4
S1130A9010F481E16ADE84ED90E0F5DA8F3F79F0BD
S1130AA084ED90E0F0DA8B3451F084ED90E0EBDAF1
S1130AB0873529F084ED90E0E6DA8832A1F480915C
S1130AC0990090919A008C3221E0920730F40196BB
S1130AD090939A00809399000FC0F60110828EEAD9
S1130AE090E0D5D209C08091940084FD02C0F60143
S1130AF090828EEA90E0C4D280919E00882319F0FF
S1130B008EEA90E0F8D280919D00882321F062E083
S1130B108EEA90E0E3D28AEA90E0A5D286EA90E0F9
S1130B20A2D282EA90E09FD28EE990E09CD28881A2
S1130B30863470F48091970090919800883EF3E099
S1130B409F0730F40196909398008093970004C017
S1130B5010929800109297003ED3882309F4C4CED3
S1130B6034D3813019F48EEF1ED3BECE823019F403
S1130B7010929300B9CE833019F490929300B4CEBE
S1130B80803119F410928800AFCE813119F490921B
S1130B908800AACE823151F41ED38823E9F315D3F9
S1130BA0809360008FE790E002D39ECE803211F4F0
S1130BB0FAD29ACE803339F48FEF90E039D187EFAF
S1130BC090E036D191CE813339F48FEF90E01DD18E
S1130BD087EF90E01AD188CE8034E1F4F10180816E
S1130BE090E077DCE4D281E690E0E1D2F20180810A
S1130BF090E06FDCDCD281E690E0D9D2F301808111
S1130C0090E067DCD4D281E690E0D1D28DE790E029
S1130C10CED26ACE803521F48FE191E009D164CE41
S1130C20813521F48FE191E0F0D05ECE823549F434
S1130C30D2D28823E9F3C9D2682F8EEA90E04ED24B
S1130C4053CE833561F48091940080FF04C08E7F7D
S1130C508093940049CE81608093940045CE84357E
S1130C6061F48091940081FF04C08D7F809394008F
S1130C703BCE82608093940037CE853551F484ED69
S1130C8090E001DA90E025DC92D28DE790E08FD2FB
S1130C902BCE863589F4F801808191811ADC87D2C4
S1130CA081E690E084D2F7018081918112DC7FD2C9
S1130CB08DE790E07CD218CE873539F48AEA90E04B
S1130CC0D2D186EA90E0CFD10FCE883521F48EEAD6
S1130CD090E0D6D109CE803681F4A880B12C8DE77E
S1130CE090E065D28A9CC0018B9C900D1124F1DBAD
S1130CF05ED28DE790E05BD2F7CD813619F480E1C6
S1130D0034DDF2CD823619F481E12FDDEDCD833669
S1130D1089F480919C0090E0DCDB49D28DE790E07F
S1130D2046D280919B0090E0D4DB41D28DE790E0E5
S1130D303ED2DACD803779F44ED28823E9F345D216
S1130D40682F88EE90E0F5D990E0C3DB30D28DE7D0
S1130D5090E02DD2C9CD813709F0C6CD88EE90E060
S1130D60D3D990E0B6DB23D285E890E020D288EE98
S1130D7090E0CDD990E0ADDB1AD285E890E017D2AF
S1130D8088EE90E0A7D990E0A4DB11D285E890E04A
S1130D900ED28DE790E00BD2A7CD6FEF7FEF81E00D
S1130DA090E0E0DA08956FEF7FEF80E090E0DADA28
S1130DB00895FC014683278371836083CB010197E7
S1130DC093838283CB01029795838483222371F0DA
S1130DD0FB01229181E090E0BC0102C0660F771F05
S1130DE04A95E2F7AB01422B40830895FB0122911F
S1130DF081E090E0BC0102C0660F771F4A95E2F7DC
S1130E00AB014095422340830895DC01ED91FC91B0
S1130E101197408121E030E0B90116960C9002C090
S1130E20660F771F0A94E2F7CB01842B8083089521
S1130E30DC01ED91FC911197408121E030E0B90192
S1130E4016960C9002C0660F771F0A94E2F7CB0146
S1130E508095842380830895DC01ED91FC911197A2
S1130E60208116964C91822F90E0042E02C0959515
S1130E7087950A94E2F780FF0DC0508121E030E0AD
S1130E80C90102C0880F991F4A95E2F7809585230E
S1130E9080830895508121E030E0C90102C0880FA9
S1130EA0991F4A95E2F7852B80830895662399F06C
S1130EB0DC01ED91FC911197408121E030E0B90112
S1130EC016960C9002C0660F771F0A94E2F7CB01C6
S1130ED0842B80830895DC01ED91FC91119740816E
S1130EE021E030E0B90116960C9002C0660F771F1E
S1130EF00A94E2F7CB018095842380830895FC0152
S1130F00A481B5818C9190E0068002C09595879567
S1130F100A94E2F7817008950895FC017183608357
S1130F20538342833387228714868FEF868381E03D
S1130F30878308950895CF93DF93EC0189858230E8
S1130F4018F08150898719C08D8189879C81888593
S1130F50891718F48F5F888710C0981770F4953636
S1130F6018F08150888709C0933320F01986815086
S1130F70888703C0953008F49887888588236CF4A3
S1130F808881998142DF8A819B813FDF84E08C875D
S1130F90EA85FB858885808313C0853168F0888164
S1130FA0998133DF8A819B8143DF81E08C87EA85E5
S1130FB0FB858885808304C0EA85FB858AEF80836E
S1130FC0DF91CF910895CF93DF93EC018C8580FF5F
S1130FD00EC0EA85FB858885880F80838881998186
S1130FE027DF8A819B8111DF82E08C8713C081FF18
S1130FF005C08A819B811CDF1C860CC082FF0AC04D
S113100088858F3F31F08881998112DF8A819B81A5
S11310100FDF1C86DF91CF910895FC01868186172E
S113102010F4848301C064838781811101C0148218
S113103008950895FC018181882341F08281938180
S11310408935924010F081E0808311820895FC017B
S11310508081811107C081E081838281938101961F
S1131060938382830895FC018081882319F0108280
S1131070138212820895FC01718360830895089598
S1131080FC012281211102C021E022830895FC0188
S1131090128280819181CCDE089521E0FC0182815D
S11310A0811101C020E0822F0895CF93DF93EC01DA
S11310B08A81823048F081508A839B8189130BC0D6
S11310C088819981A2DE07C0813029F488819981C1
S11310D0AFDE8BE08A83DF91CF9108951F93CF9386
S11310E0DF93EC01162F611101C0D1DF1B83DF9167
S11310F0CF911F910895FC0123812A3010F42F5FB2
S113110023830895FC017283618343830895FC0162
S11311107283618308950895FC0160830895FC013E
S11311208481823010F081508483838180FF05C0E4
S11311308481811102C0808184830895FC018481AB
S1131140813069F483818370833011F480818483D6
S11311508481815084830180F281E02D0995089572
S1131160FC018381982F9160938381FD02C080816B
S1131170848308959B01AC0182E08BB988E18AB92C
S113118086E080BD60E472E48FE090E050D0DA0144
S1131190C9010197A109B109492F5A2F6B2F77274C
S11311A040BD89B908955D9BFECF8CB90895CF9356
S11311B0DF93EC018881882329F02196F4DF89915B
S11311C08111FCCFDF91CF9108955F9B02C08CB158
S11311D0089580E008958BB1881F8827881F08959B
S11311E0AA1BBB1B51E107C0AA1FBB1FA617B70749
S11311F010F0A61BB70B881F991F5A95A9F7809565
S11312009095BC01CD01089597FB072E16F4009428
S113121006D077FD08D0E4DF07FC05D03EF49095B6
S113122081959F4F0895709561957F4F0895A1E230
S11312301A2EAA1BBB1BFD010DC0AA1FBB1FEE1F4C
S1131240FF1FA217B307E407F50720F0A21BB30B97
S1131250E40BF50B661F771F881F991F1A9469F713
S113126060957095809590959B01AC01BD01CF016F
S11312700895052E97FB16F4009406D057FD0CD064
S1131280D6DF07FC09D07EF4909580957095619522
S11312907F4F8F4F9F4F08955095409530952195DE
S11312A03F4F4F4F5F4F0895A29FB001B39FC001BE
S11312B0A39F01D0B29F700D811D1124911D08952B
S11312C0F3DFB7FF0895821B930B0895EDDFA59F0D
S11312D0900DB49F900DA49F800D911D112408952D
S11312E0EE0FFF1F0590F491E02D099410E0C8E281
S11312F0D0E003C0FE01F6DF2296CA32D107D1F74F
S1071300F894FFCF8B
S11313041409000A524E2043617220436F6E7472B2
S11313146F6C6C65722046572076312E300A007447
S10B1324696D6572002C2000C4
S9030000FC
